S0160000427574746F6E466C617368496E742E7372656379
S113000071C0000081C000007FC000007DC00000FE
S11300107BC0000079C0000077C0000075C00000FC
S113002073C0000071C000006FC000004AC100002E
S11300306BC0000069C0000067C0000065C000001C
S113004063C0000061C000005FC000005DC000002C
S11300505BC0000059C0000057C0000055C000003C
S113006053C0000051C000004FC000004DC000004C
S11300704BC0000049C0000047C0000045C000005C
S113008043C0000041C000003FC000003DC000006C
S11300903BC0000039C0000037C0000035C000007C
S11300A033C0000031C000002FC000002DC000008C
S11300B02BC0000029C0000027C0000025C000009C
S11300C023C0000021C000001FC000001DC00000AC
S11300D01BC0000019C0000017C0000015C00000BC
S11300E013C0000011241FBECFEFD1E2DEBFCDBF8D
S11300F000E00CBF22E0A0E0B2E001C01D92A430F9
S1130100B207E1F77DD022C17BCF21E03327281746
S1130110390709F4089522272817390779F0019738
S113012000000000000021E033272817390729F0D8
S11301300000000000000000F2CF08958FEF9FEF51
S113014000000000000000000000000000000000AB
S1130150000000000000E3CF809103028823B1F087
S1130160109203028091000290910102019739F4E8
S1130170109201021092000281E090E009C081E037
S113018090E0909301028093000202C080E090E02E
S1130190209102022223B9F01092020280910002FF
S11301A090910102029739F4109201021092000218
S11301B081E090E0089582E090E0909301028093C2
S11301C0000281E090E008950F931F93CF93DF9393
S11301D01816190684F48C01C0E0D0E0BDDF892B29
S11301E051F48FE99FE00197F1F700C000002196D8
S11301F0C017D10799F7DF91CF911F910F910895FF
S1130200E7E0F1E080818C7F8083E8E0F1E08081A9
S11302108360808381B3807F81BBE8E6F0E08081E6
S113022084608083EDE6F0E0808183608083C0E0B9
S1130230D0E0E12CF12C01E010E0789480910002F0
S1130240909101028230910599F4CD2B41F481B350
S11302508F6081BB88EC90E0B7DFE801EECF81B31B
S1130260807F81BB88EE93E0AFDFCE2DDF2DE5CF1D
S113027081309105E1F481B3807F81BB2196CE0169
S113028083709078992324F401978C6F9F6F019663
S1130290EC0121B3A80102C0440F551F8A95E2F76F
S11302A0CA01822B81BB88EE93E08EDFC6CF892BF7
S11302B009F0C3CF81B3807F81BB4EDFCE2DDF2D0C
S11302C0BCCF1F920F920FB60F9211240BB60F9250
S11302D02F933F934F935F936F937F938F939F934A
S11302E0AF93BF93EF93FF93F8948091060180FF3F
S11302F00BC08EE690E009DF8091060180FF12C0FA
S113030081E0809303020EC08091060181FF0AC040
S11303108EE690E0FADE8091060181FF03C081E061
S1130320809302027894FF91EF91BF91AF919F91D6
S11303308F917F916F915F914F913F912F910F908A
S11303400BBE0F900FBE0F901F901895F894FFCF1F
S9030000FC
